{
  "_format": "hh-sol-artifact-1",
  "contractName": "ZKVerifier",
  "sourceName": "contracts/ZKVerifier.sol",
  "abi": [
    {
      "anonymous": false,
      "inputs": [
        {
          "indexed": true,
          "internalType": "address",
          "name": "user",
          "type": "address"
        },
        {
          "indexed": false,
          "internalType": "uint256",
          "name": "timestamp",
          "type": "uint256"
        },
        {
          "indexed": false,
          "internalType": "string",
          "name": "reason",
          "type": "string"
        }
      ],
      "name": "ZKProofRevoked",
      "type": "event"
    },
    {
      "anonymous": false,
      "inputs": [
        {
          "indexed": true,
          "internalType": "address",
          "name": "user",
          "type": "address"
        },
        {
          "indexed": false,
          "internalType": "uint256",
          "name": "timestamp",
          "type": "uint256"
        },
        {
          "indexed": false,
          "internalType": "uint256",
          "name": "expiryTime",
          "type": "uint256"
        },
        {
          "indexed": false,
          "internalType": "enum ZKVerifier.ZKProofType",
          "name": "proofType",
          "type": "uint8"
        },
        {
          "indexed": false,
          "internalType": "string",
          "name": "signatureMessage",
          "type": "string"
        }
      ],
      "name": "ZKProofSubmitted",
      "type": "event"
    },
    {
      "anonymous": false,
      "inputs": [
        {
          "indexed": true,
          "internalType": "address",
          "name": "user",
          "type": "address"
        },
        {
          "indexed": false,
          "internalType": "string",
          "name": "message",
          "type": "string"
        },
        {
          "indexed": false,
          "internalType": "bytes",
          "name": "signature",
          "type": "bytes"
        }
      ],
      "name": "ZKSignatureMessageAdded",
      "type": "event"
    },
    {
      "inputs": [
        {
          "internalType": "string",
          "name": "_message",
          "type": "string"
        },
        {
          "internalType": "bytes",
          "name": "_signature",
          "type": "bytes"
        }
      ],
      "name": "addZKSignatureMessage",
      "outputs": [],
      "stateMutability": "nonpayable",
      "type": "function"
    },
    {
      "inputs": [
        {
          "internalType": "address",
          "name": "_user",
          "type": "address"
        }
      ],
      "name": "getZKProof",
      "outputs": [
        {
          "components": [
            {
              "internalType": "address",
              "name": "user",
              "type": "address"
            },
            {
              "internalType": "uint256",
              "name": "timestamp",
              "type": "uint256"
            },
            {
              "internalType": "uint256",
              "name": "expiryTime",
              "type": "uint256"
            },
            {
              "internalType": "bytes",
              "name": "publicSignals",
              "type": "bytes"
            },
            {
              "internalType": "bytes",
              "name": "proof",
              "type": "bytes"
            },
            {
              "internalType": "enum ZKVerifier.ZKProofType",
              "name": "proofType",
              "type": "uint8"
            },
            {
              "internalType": "bool",
              "name": "isRevoked",
              "type": "bool"
            },
            {
              "internalType": "string",
              "name": "signatureMessage",
              "type": "string"
            },
            {
              "internalType": "bytes",
              "name": "signature",
              "type": "bytes"
            }
          ],
          "internalType": "struct ZKVerifier.ZKProof",
          "name": "",
          "type": "tuple"
        }
      ],
      "stateMutability": "view",
      "type": "function"
    },
    {
      "inputs": [
        {
          "internalType": "string",
          "name": "_reason",
          "type": "string"
        }
      ],
      "name": "revokeZKProof",
      "outputs": [],
      "stateMutability": "nonpayable",
      "type": "function"
    },
    {
      "inputs": [
        {
          "internalType": "bytes",
          "name": "_proof",
          "type": "bytes"
        },
        {
          "internalType": "bytes",
          "name": "_publicSignals",
          "type": "bytes"
        },
        {
          "internalType": "uint256",
          "name": "_expiryTime",
          "type": "uint256"
        },
        {
          "internalType": "enum ZKVerifier.ZKProofType",
          "name": "_proofType",
          "type": "uint8"
        },
        {
          "internalType": "string",
          "name": "_signatureMessage",
          "type": "string"
        },
        {
          "internalType": "bytes",
          "name": "_signature",
          "type": "bytes"
        }
      ],
      "name": "submitZKProof",
      "outputs": [],
      "stateMutability": "nonpayable",
      "type": "function"
    },
    {
      "inputs": [
        {
          "internalType": "address",
          "name": "_user",
          "type": "address"
        }
      ],
      "name": "verifyZKProof",
      "outputs": [
        {
          "internalType": "bool",
          "name": "",
          "type": "bool"
        }
      ],
      "stateMutability": "view",
      "type": "function"
    },
    {
      "inputs": [
        {
          "internalType": "address",
          "name": "_user",
          "type": "address"
        },
        {
          "internalType": "string",
          "name": "_message",
          "type": "string"
        }
      ],
      "name": "verifyZKSignature",
      "outputs": [
        {
          "internalType": "bool",
          "name": "",
          "type": "bool"
        }
      ],
      "stateMutability": "view",
      "type": "function"
    },
    {
      "inputs": [
        {
          "internalType": "address",
          "name": "",
          "type": "address"
        }
      ],
      "name": "zkProofs",
      "outputs": [
        {
          "internalType": "address",
          "name": "user",
          "type": "address"
        },
        {
          "internalType": "uint256",
          "name": "timestamp",
          "type": "uint256"
        },
        {
          "internalType": "uint256",
          "name": "expiryTime",
          "type": "uint256"
        },
        {
          "internalType": "bytes",
          "name": "publicSignals",
          "type": "bytes"
        },
        {
          "internalType": "bytes",
          "name": "proof",
          "type": "bytes"
        },
        {
          "internalType": "enum ZKVerifier.ZKProofType",
          "name": "proofType",
          "type": "uint8"
        },
        {
          "internalType": "bool",
          "name": "isRevoked",
          "type": "bool"
        },
        {
          "internalType": "string",
          "name": "signatureMessage",
          "type": "string"
        },
        {
          "internalType": "bytes",
          "name": "signature",
          "type": "bytes"
        }
      ],
      "stateMutability": "view",
      "type": "function"
    }
  ],
  "bytecode": "0x608060405234801561001057600080fd5b5061187a806100206000396000f3fe608060405234801561001057600080fd5b506004361061007d5760003560e01c80633d14999f1161005b5780633d14999f146100df57806358e95762146100f2578063a4403d851461011a578063f6f77b971461012d57600080fd5b80630273ba861461008257806332a0b6b1146100aa5780633be610dc146100bf575b600080fd5b61009561009036600461122d565b610140565b60405190151581526020015b60405180910390f35b6100bd6100b836600461127b565b6104b3565b005b6100d26100cd3660046112b8565b610574565b6040516100a19190611362565b6100bd6100ed36600461148c565b61085d565b6101056101003660046112b8565b610a68565b6040516100a199989796959493929190611561565b6100956101283660046112b8565b610ce4565b6100bd61013b3660046115f1565b611029565b6001600160a01b038083166000908152602081815260408083208151610120810183528154909516855260018101549285019290925260028201549084015260038101805492938493909291606084019161019a9061164b565b80601f01602080910402602001604051908101604052809291908181526020018280546101c69061164b565b80156102135780601f106101e857610100808354040283529160200191610213565b820191906000526020600020905b8154815290600101906020018083116101f657829003601f168201915b5050505050815260200160048201805461022c9061164b565b80601f01602080910402602001604051908101604052809291908181526020018280546102589061164b565b80156102a55780601f1061027a576101008083540402835291602001916102a5565b820191906000526020600020905b81548152906001019060200180831161028857829003601f168201915b5050509183525050600582015460209091019060ff1660028111156102cc576102cc61132a565b60028111156102dd576102dd61132a565b81526005820154610100900460ff16151560208201526006820180546040909201916103089061164b565b80601f01602080910402602001604051908101604052809291908181526020018280546103349061164b565b80156103815780601f1061035657610100808354040283529160200191610381565b820191906000526020600020905b81548152906001019060200180831161036457829003601f168201915b5050505050815260200160078201805461039a9061164b565b80601f01602080910402602001604051908101604052809291908181526020018280546103c69061164b565b80156104135780601f106103e857610100808354040283529160200191610413565b820191906000526020600020905b8154815290600101906020018083116103f657829003601f168201915b5050505050815250509050836001600160a01b031681600001516001600160a01b0316141580610447575061010081015151155b156104565760009150506104ad565b826040516020016104679190611685565b604051602081830303815290604052805190602001208160e001516040516020016104929190611685565b60405160208183030381529060405280519060200120149150505b92915050565b336000818152602081905260409020546001600160a01b0316146105185760405162461bcd60e51b8152602060048201526017602482015276273790383937b7b3103337bab732103337b9103ab9b2b960491b60448201526064015b60405180910390fd5b3360008181526020819052604090819020600501805461ff001916610100179055517f46608db7c5af75391a2fc59088a2127edd7e18ed7ecef74dcf78ac56c2023d2d9061056990429085906116a1565b60405180910390a250565b61057c61110a565b6001600160a01b0380831660009081526020818152604091829020825161012081018452815490941684526001810154918401919091526002810154918301919091526003810180546060840191906105d49061164b565b80601f01602080910402602001604051908101604052809291908181526020018280546106009061164b565b801561064d5780601f106106225761010080835404028352916020019161064d565b820191906000526020600020905b81548152906001019060200180831161063057829003601f168201915b505050505081526020016004820180546106669061164b565b80601f01602080910402602001604051908101604052809291908181526020018280546106929061164b565b80156106df5780601f106106b4576101008083540402835291602001916106df565b820191906000526020600020905b8154815290600101906020018083116106c257829003601f168201915b5050509183525050600582015460209091019060ff1660028111156107065761070661132a565b60028111156107175761071761132a565b81526005820154610100900460ff16151560208201526006820180546040909201916107429061164b565b80601f016020809104026020016040519081016040528092919081815260200182805461076e9061164b565b80156107bb5780601f10610790576101008083540402835291602001916107bb565b820191906000526020600020905b81548152906001019060200180831161079e57829003601f168201915b505050505081526020016007820180546107d49061164b565b80601f01602080910402602001604051908101604052809291908181526020018280546108009061164b565b801561084d5780601f106108225761010080835404028352916020019161084d565b820191906000526020600020905b81548152906001019060200180831161083057829003601f168201915b5050505050815250509050919050565b60408051610120810182523381524260208201529081018561088057600061088a565b61088a86426116ba565b815260200187878080601f016020809104026020016040519081016040528093929190818152602001838380828437600092019190915250505090825250604080516020601f8c018190048102820181019092528a815291810191908b908b90819084018382808284376000920191909152505050908252506020018460028111156109185761091861132a565b8152600060208083018290526040808401879052606093840186905233835282825291829020845181546001600160a01b0319166001600160a01b0390911617815590840151600182015590830151600282015590820151600382019061097f908261172a565b5060808201516004820190610994908261172a565b5060a082015160058201805460ff191660018360028111156109b8576109b861132a565b021790555060c08201516005820180549115156101000261ff001990921691909117905560e082015160068201906109f0908261172a565b506101008201516007820190610a06908261172a565b503391507fd178b0f54e0cb5e5f1541a584a91baed65df47b2e498b2ba24cbfed2a92c08ce90504286610a3a576000610a44565b610a4487426116ba565b8686604051610a5694939291906117ea565b60405180910390a25050505050505050565b60006020819052908152604090208054600182015460028301546003840180546001600160a01b03909416949293919291610aa29061164b565b80601f0160208091040260200160405190810160405280929190818152602001828054610ace9061164b565b8015610b1b5780601f10610af057610100808354040283529160200191610b1b565b820191906000526020600020905b815481529060010190602001808311610afe57829003601f168201915b505050505090806004018054610b309061164b565b80601f0160208091040260200160405190810160405280929190818152602001828054610b5c9061164b565b8015610ba95780601f10610b7e57610100808354040283529160200191610ba9565b820191906000526020600020905b815481529060010190602001808311610b8c57829003601f168201915b505050506005830154600684018054939460ff8084169561010090940416935091610bd39061164b565b80601f0160208091040260200160405190810160405280929190818152602001828054610bff9061164b565b8015610c4c5780601f10610c2157610100808354040283529160200191610c4c565b820191906000526020600020905b815481529060010190602001808311610c2f57829003601f168201915b505050505090806007018054610c619061164b565b80601f0160208091040260200160405190810160405280929190818152602001828054610c8d9061164b565b8015610cda5780601f10610caf57610100808354040283529160200191610cda565b820191906000526020600020905b815481529060010190602001808311610cbd57829003601f168201915b5050505050905089565b6001600160a01b0380821660009081526020818152604080832081516101208101835281549095168552600181015492850192909252600282015490840152600381018054929384939092916060840191610d3e9061164b565b80601f0160208091040260200160405190810160405280929190818152602001828054610d6a9061164b565b8015610db75780601f10610d8c57610100808354040283529160200191610db7565b820191906000526020600020905b815481529060010190602001808311610d9a57829003601f168201915b50505050508152602001600482018054610dd09061164b565b80601f0160208091040260200160405190810160405280929190818152602001828054610dfc9061164b565b8015610e495780601f10610e1e57610100808354040283529160200191610e49565b820191906000526020600020905b815481529060010190602001808311610e2c57829003601f168201915b5050509183525050600582015460209091019060ff166002811115610e7057610e7061132a565b6002811115610e8157610e8161132a565b81526005820154610100900460ff1615156020820152600682018054604090920191610eac9061164b565b80601f0160208091040260200160405190810160405280929190818152602001828054610ed89061164b565b8015610f255780601f10610efa57610100808354040283529160200191610f25565b820191906000526020600020905b815481529060010190602001808311610f0857829003601f168201915b50505050508152602001600782018054610f3e9061164b565b80601f0160208091040260200160405190810160405280929190818152602001828054610f6a9061164b565b8015610fb75780601f10610f8c57610100808354040283529160200191610fb7565b820191906000526020600020905b815481529060010190602001808311610f9a57829003601f168201915b5050505050815250509050826001600160a01b031681600001516001600160a01b031614610fe85750600092915050565b8060c0015115610ffb5750600092915050565b600081604001511180156110125750806040015142115b156110205750600092915050565b50600192915050565b336000818152602081905260409020546001600160a01b0316146110895760405162461bcd60e51b8152602060048201526017602482015276273790383937b7b3103337bab732103337b9103ab9b2b960491b604482015260640161050f565b3360009081526020819052604090206006016110a5838261172a565b503360009081526020819052604090206007016110c2828261172a565b50336001600160a01b03167f9623fbe52ee7a0badb5cfb6b730678f64ea890622f5c5e5bec898bc984d3f72a83836040516110fe929190611816565b60405180910390a25050565b60405180610120016040528060006001600160a01b0316815260200160008152602001600081526020016060815260200160608152602001600060028111156111555761115561132a565b8152600060208201526060604082018190529081015290565b80356001600160a01b038116811461118557600080fd5b919050565b634e487b7160e01b600052604160045260246000fd5b600082601f8301126111b157600080fd5b813567ffffffffffffffff808211156111cc576111cc61118a565b604051601f8301601f19908116603f011681019082821181831017156111f4576111f461118a565b8160405283815286602085880101111561120d57600080fd5b836020870160208301376000602085830101528094505050505092915050565b6000806040838503121561124057600080fd5b6112498361116e565b9150602083013567ffffffffffffffff81111561126557600080fd5b611271858286016111a0565b9150509250929050565b60006020828403121561128d57600080fd5b813567ffffffffffffffff8111156112a457600080fd5b6112b0848285016111a0565b949350505050565b6000602082840312156112ca57600080fd5b6112d38261116e565b9392505050565b60005b838110156112f55781810151838201526020016112dd565b50506000910152565b600081518084526113168160208601602086016112da565b601f01601f19169290920160200192915050565b634e487b7160e01b600052602160045260246000fd5b6003811061135e57634e487b7160e01b600052602160045260246000fd5b9052565b6020815261137c6020820183516001600160a01b03169052565b6020820151604082015260408201516060820152600060608301516101208060808501526113ae6101408501836112fe565b91506080850151601f19808685030160a08701526113cc84836112fe565b935060a087015191506113e260c0870183611340565b60c087015180151560e0880152915060e0870151915061010081878603018188015261140e85846112fe565b90880151878203909201848801529350905061142a83826112fe565b9695505050505050565b60008083601f84011261144657600080fd5b50813567ffffffffffffffff81111561145e57600080fd5b60208301915083602082850101111561147657600080fd5b9250929050565b80356003811061118557600080fd5b60008060008060008060008060c0898b0312156114a857600080fd5b883567ffffffffffffffff808211156114c057600080fd5b6114cc8c838d01611434565b909a50985060208b01359150808211156114e557600080fd5b6114f18c838d01611434565b909850965060408b0135955086915061150c60608c0161147d565b945060808b013591508082111561152257600080fd5b61152e8c838d016111a0565b935060a08b013591508082111561154457600080fd5b506115518b828c016111a0565b9150509295985092959890939650565b600061012060018060a01b038c1683528a602084015289604084015280606084015261158f8184018a6112fe565b905082810360808401526115a381896112fe565b90506115b260a0840188611340565b85151560c084015282810360e08401526115cc81866112fe565b90508281036101008401526115e181856112fe565b9c9b505050505050505050505050565b6000806040838503121561160457600080fd5b823567ffffffffffffffff8082111561161c57600080fd5b611628868387016111a0565b9350602085013591508082111561163e57600080fd5b50611271858286016111a0565b600181811c9082168061165f57607f821691505b60208210810361167f57634e487b7160e01b600052602260045260246000fd5b50919050565b600082516116978184602087016112da565b9190910192915050565b8281526040602082015260006112b060408301846112fe565b808201808211156104ad57634e487b7160e01b600052601160045260246000fd5b601f82111561172557600081815260208120601f850160051c810160208610156117025750805b601f850160051c820191505b818110156117215782815560010161170e565b5050505b505050565b815167ffffffffffffffff8111156117445761174461118a565b61175881611752845461164b565b846116db565b602080601f83116001811461178d57600084156117755750858301515b600019600386901b1c1916600185901b178555611721565b600085815260208120601f198616915b828110156117bc5788860151825594840194600190910190840161179d565b50858210156117da5787850151600019600388901b60f8161c191681555b5050505050600190811b01905550565b8481528360208201526118006040820184611340565b60806060820152600061142a60808301846112fe565b60408152600061182960408301856112fe565b828103602084015261183b81856112fe565b9594505050505056fea2646970667358221220846ef0a7f0b6eb987e7e0ca99a2a0a8472166f16655e4b21094225e10f72762864736f6c63430008130033",
  "linkReferences": {},
  "deployedLinkReferences": {}
}