{
  "_format": "hh-sol-artifact-1",
  "contractName": "ZKVerifier",
  "sourceName": "contracts/ZKVerifier.sol",
  "abi": [
    {
      "anonymous": false,
      "inputs": [
        {
          "indexed": true,
          "internalType": "address",
          "name": "user",
          "type": "address"
        },
        {
          "indexed": false,
          "internalType": "uint256",
          "name": "timestamp",
          "type": "uint256"
        },
        {
          "indexed": false,
          "internalType": "string",
          "name": "reason",
          "type": "string"
        }
      ],
      "name": "ZKProofRevoked",
      "type": "event"
    },
    {
      "anonymous": false,
      "inputs": [
        {
          "indexed": true,
          "internalType": "address",
          "name": "user",
          "type": "address"
        },
        {
          "indexed": false,
          "internalType": "uint256",
          "name": "timestamp",
          "type": "uint256"
        },
        {
          "indexed": false,
          "internalType": "uint256",
          "name": "expiryTime",
          "type": "uint256"
        },
        {
          "indexed": false,
          "internalType": "enum ZKVerifier.ZKProofType",
          "name": "proofType",
          "type": "uint8"
        },
        {
          "indexed": false,
          "internalType": "string",
          "name": "signatureMessage",
          "type": "string"
        }
      ],
      "name": "ZKProofSubmitted",
      "type": "event"
    },
    {
      "anonymous": false,
      "inputs": [
        {
          "indexed": true,
          "internalType": "address",
          "name": "user",
          "type": "address"
        },
        {
          "indexed": false,
          "internalType": "string",
          "name": "message",
          "type": "string"
        },
        {
          "indexed": false,
          "internalType": "bytes",
          "name": "signature",
          "type": "bytes"
        }
      ],
      "name": "ZKSignatureMessageAdded",
      "type": "event"
    },
    {
      "inputs": [
        {
          "internalType": "string",
          "name": "_message",
          "type": "string"
        },
        {
          "internalType": "bytes",
          "name": "_signature",
          "type": "bytes"
        }
      ],
      "name": "addZKSignatureMessage",
      "outputs": [],
      "stateMutability": "nonpayable",
      "type": "function"
    },
    {
      "inputs": [
        {
          "internalType": "address",
          "name": "_user",
          "type": "address"
        }
      ],
      "name": "getZKProof",
      "outputs": [
        {
          "components": [
            {
              "internalType": "address",
              "name": "user",
              "type": "address"
            },
            {
              "internalType": "uint256",
              "name": "timestamp",
              "type": "uint256"
            },
            {
              "internalType": "uint256",
              "name": "expiryTime",
              "type": "uint256"
            },
            {
              "internalType": "bytes",
              "name": "publicSignals",
              "type": "bytes"
            },
            {
              "internalType": "bytes",
              "name": "proof",
              "type": "bytes"
            },
            {
              "internalType": "enum ZKVerifier.ZKProofType",
              "name": "proofType",
              "type": "uint8"
            },
            {
              "internalType": "bool",
              "name": "isRevoked",
              "type": "bool"
            },
            {
              "internalType": "string",
              "name": "signatureMessage",
              "type": "string"
            },
            {
              "internalType": "bytes",
              "name": "signature",
              "type": "bytes"
            }
          ],
          "internalType": "struct ZKVerifier.ZKProof",
          "name": "",
          "type": "tuple"
        }
      ],
      "stateMutability": "view",
      "type": "function"
    },
    {
      "inputs": [
        {
          "internalType": "string",
          "name": "_reason",
          "type": "string"
        }
      ],
      "name": "revokeZKProof",
      "outputs": [],
      "stateMutability": "nonpayable",
      "type": "function"
    },
    {
      "inputs": [
        {
          "internalType": "bytes",
          "name": "_proof",
          "type": "bytes"
        },
        {
          "internalType": "bytes",
          "name": "_publicSignals",
          "type": "bytes"
        },
        {
          "internalType": "uint256",
          "name": "_expiryTime",
          "type": "uint256"
        },
        {
          "internalType": "enum ZKVerifier.ZKProofType",
          "name": "_proofType",
          "type": "uint8"
        },
        {
          "internalType": "string",
          "name": "_signatureMessage",
          "type": "string"
        },
        {
          "internalType": "bytes",
          "name": "_signature",
          "type": "bytes"
        }
      ],
      "name": "submitZKProof",
      "outputs": [],
      "stateMutability": "nonpayable",
      "type": "function"
    },
    {
      "inputs": [
        {
          "internalType": "address",
          "name": "_user",
          "type": "address"
        }
      ],
      "name": "verifyZKProof",
      "outputs": [
        {
          "internalType": "bool",
          "name": "",
          "type": "bool"
        }
      ],
      "stateMutability": "view",
      "type": "function"
    },
    {
      "inputs": [
        {
          "internalType": "address",
          "name": "_user",
          "type": "address"
        },
        {
          "internalType": "string",
          "name": "_message",
          "type": "string"
        }
      ],
      "name": "verifyZKSignature",
      "outputs": [
        {
          "internalType": "bool",
          "name": "",
          "type": "bool"
        }
      ],
      "stateMutability": "view",
      "type": "function"
    },
    {
      "inputs": [
        {
          "internalType": "address",
          "name": "",
          "type": "address"
        }
      ],
      "name": "zkProofs",
      "outputs": [
        {
          "internalType": "address",
          "name": "user",
          "type": "address"
        },
        {
          "internalType": "uint256",
          "name": "timestamp",
          "type": "uint256"
        },
        {
          "internalType": "uint256",
          "name": "expiryTime",
          "type": "uint256"
        },
        {
          "internalType": "bytes",
          "name": "publicSignals",
          "type": "bytes"
        },
        {
          "internalType": "bytes",
          "name": "proof",
          "type": "bytes"
        },
        {
          "internalType": "enum ZKVerifier.ZKProofType",
          "name": "proofType",
          "type": "uint8"
        },
        {
          "internalType": "bool",
          "name": "isRevoked",
          "type": "bool"
        },
        {
          "internalType": "string",
          "name": "signatureMessage",
          "type": "string"
        },
        {
          "internalType": "bytes",
          "name": "signature",
          "type": "bytes"
        }
      ],
      "stateMutability": "view",
      "type": "function"
    }
  ],
  "bytecode": "0x608060405234801561001057600080fd5b50611922806100206000396000f3fe608060405234801561001057600080fd5b506004361061007d5760003560e01c80633d14999f1161005b5780633d14999f146100df57806358e95762146100f2578063a4403d851461011a578063f6f77b971461012d57600080fd5b80630273ba861461008257806332a0b6b1146100aa5780633be610dc146100bf575b600080fd5b6100956100903660046112dc565b610140565b60405190151581526020015b60405180910390f35b6100bd6100b836600461132a565b6104b3565b005b6100d26100cd366004611367565b610574565b6040516100a1919061140a565b6100bd6100ed366004611534565b61085d565b610105610100366004611367565b610a68565b6040516100a199989796959493929190611609565b610095610128366004611367565b610ce4565b6100bd61013b366004611699565b61103e565b6001600160a01b038083166000908152602081815260408083208151610120810183528154909516855260018101549285019290925260028201549084015260038101805492938493909291606084019161019a906116f3565b80601f01602080910402602001604051908101604052809291908181526020018280546101c6906116f3565b80156102135780601f106101e857610100808354040283529160200191610213565b820191906000526020600020905b8154815290600101906020018083116101f657829003601f168201915b5050505050815260200160048201805461022c906116f3565b80601f0160208091040260200160405190810160405280929190818152602001828054610258906116f3565b80156102a55780601f1061027a576101008083540402835291602001916102a5565b820191906000526020600020905b81548152906001019060200180831161028857829003601f168201915b5050509183525050600582015460209091019060ff1660028111156102cc576102cc6113d2565b60028111156102dd576102dd6113d2565b81526005820154610100900460ff1615156020820152600682018054604090920191610308906116f3565b80601f0160208091040260200160405190810160405280929190818152602001828054610334906116f3565b80156103815780601f1061035657610100808354040283529160200191610381565b820191906000526020600020905b81548152906001019060200180831161036457829003601f168201915b5050505050815260200160078201805461039a906116f3565b80601f01602080910402602001604051908101604052809291908181526020018280546103c6906116f3565b80156104135780601f106103e857610100808354040283529160200191610413565b820191906000526020600020905b8154815290600101906020018083116103f657829003601f168201915b5050505050815250509050836001600160a01b031681600001516001600160a01b0316141580610447575061010081015151155b156104565760009150506104ad565b82604051602001610467919061172d565b604051602081830303815290604052805190602001208160e00151604051602001610492919061172d565b60405160208183030381529060405280519060200120149150505b92915050565b336000818152602081905260409020546001600160a01b0316146105185760405162461bcd60e51b8152602060048201526017602482015276273790383937b7b3103337bab732103337b9103ab9b2b960491b60448201526064015b60405180910390fd5b3360008181526020819052604090819020600501805461ff001916610100179055517f46608db7c5af75391a2fc59088a2127edd7e18ed7ecef74dcf78ac56c2023d2d906105699042908590611749565b60405180910390a250565b61057c6111b9565b6001600160a01b0380831660009081526020818152604091829020825161012081018452815490941684526001810154918401919091526002810154918301919091526003810180546060840191906105d4906116f3565b80601f0160208091040260200160405190810160405280929190818152602001828054610600906116f3565b801561064d5780601f106106225761010080835404028352916020019161064d565b820191906000526020600020905b81548152906001019060200180831161063057829003601f168201915b50505050508152602001600482018054610666906116f3565b80601f0160208091040260200160405190810160405280929190818152602001828054610692906116f3565b80156106df5780601f106106b4576101008083540402835291602001916106df565b820191906000526020600020905b8154815290600101906020018083116106c257829003601f168201915b5050509183525050600582015460209091019060ff166002811115610706576107066113d2565b6002811115610717576107176113d2565b81526005820154610100900460ff1615156020820152600682018054604090920191610742906116f3565b80601f016020809104026020016040519081016040528092919081815260200182805461076e906116f3565b80156107bb5780601f10610790576101008083540402835291602001916107bb565b820191906000526020600020905b81548152906001019060200180831161079e57829003601f168201915b505050505081526020016007820180546107d4906116f3565b80601f0160208091040260200160405190810160405280929190818152602001828054610800906116f3565b801561084d5780601f106108225761010080835404028352916020019161084d565b820191906000526020600020905b81548152906001019060200180831161083057829003601f168201915b5050505050815250509050919050565b60408051610120810182523381524260208201529081018561088057600061088a565b61088a8642611762565b815260200187878080601f016020809104026020016040519081016040528093929190818152602001838380828437600092019190915250505090825250604080516020601f8c018190048102820181019092528a815291810191908b908b9081908401838280828437600092019190915250505090825250602001846002811115610918576109186113d2565b8152600060208083018290526040808401879052606093840186905233835282825291829020845181546001600160a01b0319166001600160a01b0390911617815590840151600182015590830151600282015590820151600382019061097f90826117d2565b506080820151600482019061099490826117d2565b5060a082015160058201805460ff191660018360028111156109b8576109b86113d2565b021790555060c08201516005820180549115156101000261ff001990921691909117905560e082015160068201906109f090826117d2565b506101008201516007820190610a0690826117d2565b503391507fd178b0f54e0cb5e5f1541a584a91baed65df47b2e498b2ba24cbfed2a92c08ce90504286610a3a576000610a44565b610a448742611762565b8686604051610a569493929190611892565b60405180910390a25050505050505050565b60006020819052908152604090208054600182015460028301546003840180546001600160a01b03909416949293919291610aa2906116f3565b80601f0160208091040260200160405190810160405280929190818152602001828054610ace906116f3565b8015610b1b5780601f10610af057610100808354040283529160200191610b1b565b820191906000526020600020905b815481529060010190602001808311610afe57829003601f168201915b505050505090806004018054610b30906116f3565b80601f0160208091040260200160405190810160405280929190818152602001828054610b5c906116f3565b8015610ba95780601f10610b7e57610100808354040283529160200191610ba9565b820191906000526020600020905b815481529060010190602001808311610b8c57829003601f168201915b505050506005830154600684018054939460ff8084169561010090940416935091610bd3906116f3565b80601f0160208091040260200160405190810160405280929190818152602001828054610bff906116f3565b8015610c4c5780601f10610c2157610100808354040283529160200191610c4c565b820191906000526020600020905b815481529060010190602001808311610c2f57829003601f168201915b505050505090806007018054610c61906116f3565b80601f0160208091040260200160405190810160405280929190818152602001828054610c8d906116f3565b8015610cda5780601f10610caf57610100808354040283529160200191610cda565b820191906000526020600020905b815481529060010190602001808311610cbd57829003601f168201915b5050505050905089565b6001600160a01b0380821660009081526020818152604080832081516101208101835281549095168552600181015492850192909252600282015490840152600381018054929384939092916060840191610d3e906116f3565b80601f0160208091040260200160405190810160405280929190818152602001828054610d6a906116f3565b8015610db75780601f10610d8c57610100808354040283529160200191610db7565b820191906000526020600020905b815481529060010190602001808311610d9a57829003601f168201915b50505050508152602001600482018054610dd0906116f3565b80601f0160208091040260200160405190810160405280929190818152602001828054610dfc906116f3565b8015610e495780601f10610e1e57610100808354040283529160200191610e49565b820191906000526020600020905b815481529060010190602001808311610e2c57829003601f168201915b5050509183525050600582015460209091019060ff166002811115610e7057610e706113d2565b6002811115610e8157610e816113d2565b81526005820154610100900460ff1615156020820152600682018054604090920191610eac906116f3565b80601f0160208091040260200160405190810160405280929190818152602001828054610ed8906116f3565b8015610f255780601f10610efa57610100808354040283529160200191610f25565b820191906000526020600020905b815481529060010190602001808311610f0857829003601f168201915b50505050508152602001600782018054610f3e906116f3565b80601f0160208091040260200160405190810160405280929190818152602001828054610f6a906116f3565b8015610fb75780601f10610f8c57610100808354040283529160200191610fb7565b820191906000526020600020905b815481529060010190602001808311610f9a57829003601f168201915b5050505050815250509050826001600160a01b031681600001516001600160a01b031614610fe85750600092915050565b8060c0015115610ffb5750600092915050565b600081604001511180156110125750806040015142115b156110205750600092915050565b611037816080015182606001518360a0015161111f565b9392505050565b336000818152602081905260409020546001600160a01b03161461109e5760405162461bcd60e51b8152602060048201526017602482015276273790383937b7b3103337bab732103337b9103ab9b2b960491b604482015260640161050f565b3360009081526020819052604090206006016110ba83826117d2565b503360009081526020819052604090206007016110d782826117d2565b50336001600160a01b03167f9623fbe52ee7a0badb5cfb6b730678f64ea890622f5c5e5bec898bc984d3f72a83836040516111139291906118be565b60405180910390a25050565b600083516000148061113057508251155b1561113d57506000611037565b6000826002811115611151576111516113d2565b036111635760a0845110159050611037565b6001826002811115611177576111776113d2565b036111895760a0845110159050611037565b600282600281111561119d5761119d6113d2565b036111af5760a0845110159050611037565b5060009392505050565b60405180610120016040528060006001600160a01b031681526020016000815260200160008152602001606081526020016060815260200160006002811115611204576112046113d2565b8152600060208201526060604082018190529081015290565b80356001600160a01b038116811461123457600080fd5b919050565b634e487b7160e01b600052604160045260246000fd5b600082601f83011261126057600080fd5b813567ffffffffffffffff8082111561127b5761127b611239565b604051601f8301601f19908116603f011681019082821181831017156112a3576112a3611239565b816040528381528660208588010111156112bc57600080fd5b836020870160208301376000602085830101528094505050505092915050565b600080604083850312156112ef57600080fd5b6112f88361121d565b9150602083013567ffffffffffffffff81111561131457600080fd5b6113208582860161124f565b9150509250929050565b60006020828403121561133c57600080fd5b813567ffffffffffffffff81111561135357600080fd5b61135f8482850161124f565b949350505050565b60006020828403121561137957600080fd5b6110378261121d565b60005b8381101561139d578181015183820152602001611385565b50506000910152565b600081518084526113be816020860160208601611382565b601f01601f19169290920160200192915050565b634e487b7160e01b600052602160045260246000fd5b6003811061140657634e487b7160e01b600052602160045260246000fd5b9052565b602081526114246020820183516001600160a01b03169052565b6020820151604082015260408201516060820152600060608301516101208060808501526114566101408501836113a6565b91506080850151601f19808685030160a087015261147484836113a6565b935060a0870151915061148a60c08701836113e8565b60c087015180151560e0880152915060e087015191506101008187860301818801526114b685846113a6565b9088015187820390920184880152935090506114d283826113a6565b9695505050505050565b60008083601f8401126114ee57600080fd5b50813567ffffffffffffffff81111561150657600080fd5b60208301915083602082850101111561151e57600080fd5b9250929050565b80356003811061123457600080fd5b60008060008060008060008060c0898b03121561155057600080fd5b883567ffffffffffffffff8082111561156857600080fd5b6115748c838d016114dc565b909a50985060208b013591508082111561158d57600080fd5b6115998c838d016114dc565b909850965060408b013595508691506115b460608c01611525565b945060808b01359150808211156115ca57600080fd5b6115d68c838d0161124f565b935060a08b01359150808211156115ec57600080fd5b506115f98b828c0161124f565b9150509295985092959890939650565b600061012060018060a01b038c1683528a60208401528960408401528060608401526116378184018a6113a6565b9050828103608084015261164b81896113a6565b905061165a60a08401886113e8565b85151560c084015282810360e084015261167481866113a6565b905082810361010084015261168981856113a6565b9c9b505050505050505050505050565b600080604083850312156116ac57600080fd5b823567ffffffffffffffff808211156116c457600080fd5b6116d08683870161124f565b935060208501359150808211156116e657600080fd5b506113208582860161124f565b600181811c9082168061170757607f821691505b60208210810361172757634e487b7160e01b600052602260045260246000fd5b50919050565b6000825161173f818460208701611382565b9190910192915050565b82815260406020820152600061135f60408301846113a6565b808201808211156104ad57634e487b7160e01b600052601160045260246000fd5b601f8211156117cd57600081815260208120601f850160051c810160208610156117aa5750805b601f850160051c820191505b818110156117c9578281556001016117b6565b5050505b505050565b815167ffffffffffffffff8111156117ec576117ec611239565b611800816117fa84546116f3565b84611783565b602080601f831160018114611835576000841561181d5750858301515b600019600386901b1c1916600185901b1785556117c9565b600085815260208120601f198616915b8281101561186457888601518255948401946001909101908401611845565b50858210156118825787850151600019600388901b60f8161c191681555b5050505050600190811b01905550565b8481528360208201526118a860408201846113e8565b6080606082015260006114d260808301846113a6565b6040815260006118d160408301856113a6565b82810360208401526118e381856113a6565b9594505050505056fea264697066735822122010a3bbdefd29a477fe9cc0a5f90970a09fce96b883763826ebd9b2b69b1ae97364736f6c63430008130033",
  "linkReferences": {},
  "deployedLinkReferences": {}
}