{
  "_format": "hh-sol-artifact-1",
  "contractName": "ProofOfFunds",
  "sourceName": "contracts/ProofOfFunds.sol",
  "abi": [
    {
      "inputs": [],
      "stateMutability": "nonpayable",
      "type": "constructor"
    },
    {
      "anonymous": false,
      "inputs": [
        {
          "indexed": false,
          "internalType": "address",
          "name": "account",
          "type": "address"
        }
      ],
      "name": "ContractPaused",
      "type": "event"
    },
    {
      "anonymous": false,
      "inputs": [
        {
          "indexed": false,
          "internalType": "address",
          "name": "account",
          "type": "address"
        }
      ],
      "name": "ContractUnpaused",
      "type": "event"
    },
    {
      "anonymous": false,
      "inputs": [
        {
          "indexed": true,
          "internalType": "address",
          "name": "previousOwner",
          "type": "address"
        },
        {
          "indexed": true,
          "internalType": "address",
          "name": "newOwner",
          "type": "address"
        }
      ],
      "name": "OwnershipTransferred",
      "type": "event"
    },
    {
      "anonymous": false,
      "inputs": [
        {
          "indexed": false,
          "internalType": "address",
          "name": "account",
          "type": "address"
        }
      ],
      "name": "Paused",
      "type": "event"
    },
    {
      "anonymous": false,
      "inputs": [
        {
          "indexed": true,
          "internalType": "address",
          "name": "user",
          "type": "address"
        },
        {
          "indexed": false,
          "internalType": "bytes32",
          "name": "proofHash",
          "type": "bytes32"
        },
        {
          "indexed": false,
          "internalType": "string",
          "name": "reason",
          "type": "string"
        }
      ],
      "name": "ProofRevoked",
      "type": "event"
    },
    {
      "anonymous": false,
      "inputs": [
        {
          "indexed": true,
          "internalType": "address",
          "name": "user",
          "type": "address"
        },
        {
          "indexed": false,
          "internalType": "bytes32",
          "name": "proofHash",
          "type": "bytes32"
        },
        {
          "indexed": false,
          "internalType": "uint256",
          "name": "timestamp",
          "type": "uint256"
        },
        {
          "indexed": false,
          "internalType": "uint256",
          "name": "expiryTime",
          "type": "uint256"
        },
        {
          "indexed": false,
          "internalType": "enum ProofOfFunds.ProofType",
          "name": "proofType",
          "type": "uint8"
        }
      ],
      "name": "ProofSubmitted",
      "type": "event"
    },
    {
      "anonymous": false,
      "inputs": [
        {
          "indexed": false,
          "internalType": "address",
          "name": "account",
          "type": "address"
        }
      ],
      "name": "Unpaused",
      "type": "event"
    },
    {
      "inputs": [],
      "name": "MAX_EXPIRY_TIME",
      "outputs": [
        {
          "internalType": "uint256",
          "name": "",
          "type": "uint256"
        }
      ],
      "stateMutability": "view",
      "type": "function"
    },
    {
      "inputs": [],
      "name": "MIN_EXPIRY_TIME",
      "outputs": [
        {
          "internalType": "uint256",
          "name": "",
          "type": "uint256"
        }
      ],
      "stateMutability": "view",
      "type": "function"
    },
    {
      "inputs": [],
      "name": "VERSION",
      "outputs": [
        {
          "internalType": "string",
          "name": "",
          "type": "string"
        }
      ],
      "stateMutability": "view",
      "type": "function"
    },
    {
      "inputs": [
        {
          "internalType": "address",
          "name": "_user",
          "type": "address"
        },
        {
          "internalType": "uint256",
          "name": "_amount",
          "type": "uint256"
        },
        {
          "internalType": "enum ProofOfFunds.ProofType",
          "name": "_proofType",
          "type": "uint8"
        }
      ],
      "name": "generateProofHash",
      "outputs": [
        {
          "internalType": "bytes32",
          "name": "",
          "type": "bytes32"
        }
      ],
      "stateMutability": "pure",
      "type": "function"
    },
    {
      "inputs": [
        {
          "internalType": "address",
          "name": "_user",
          "type": "address"
        }
      ],
      "name": "getProof",
      "outputs": [
        {
          "components": [
            {
              "internalType": "address",
              "name": "user",
              "type": "address"
            },
            {
              "internalType": "uint256",
              "name": "timestamp",
              "type": "uint256"
            },
            {
              "internalType": "uint256",
              "name": "expiryTime",
              "type": "uint256"
            },
            {
              "internalType": "bytes32",
              "name": "proofHash",
              "type": "bytes32"
            },
            {
              "internalType": "enum ProofOfFunds.ProofType",
              "name": "proofType",
              "type": "uint8"
            },
            {
              "internalType": "uint256",
              "name": "thresholdAmount",
              "type": "uint256"
            },
            {
              "internalType": "bool",
              "name": "isRevoked",
              "type": "bool"
            },
            {
              "internalType": "string",
              "name": "signatureMessage",
              "type": "string"
            },
            {
              "internalType": "bytes",
              "name": "signature",
              "type": "bytes"
            }
          ],
          "internalType": "struct ProofOfFunds.Proof",
          "name": "",
          "type": "tuple"
        }
      ],
      "stateMutability": "view",
      "type": "function"
    },
    {
      "inputs": [
        {
          "internalType": "address",
          "name": "_user",
          "type": "address"
        }
      ],
      "name": "isProofValid",
      "outputs": [
        {
          "internalType": "bool",
          "name": "",
          "type": "bool"
        }
      ],
      "stateMutability": "view",
      "type": "function"
    },
    {
      "inputs": [],
      "name": "owner",
      "outputs": [
        {
          "internalType": "address",
          "name": "",
          "type": "address"
        }
      ],
      "stateMutability": "view",
      "type": "function"
    },
    {
      "inputs": [],
      "name": "pause",
      "outputs": [],
      "stateMutability": "nonpayable",
      "type": "function"
    },
    {
      "inputs": [],
      "name": "paused",
      "outputs": [
        {
          "internalType": "bool",
          "name": "",
          "type": "bool"
        }
      ],
      "stateMutability": "view",
      "type": "function"
    },
    {
      "inputs": [
        {
          "internalType": "address",
          "name": "",
          "type": "address"
        }
      ],
      "name": "proofs",
      "outputs": [
        {
          "internalType": "address",
          "name": "user",
          "type": "address"
        },
        {
          "internalType": "uint256",
          "name": "timestamp",
          "type": "uint256"
        },
        {
          "internalType": "uint256",
          "name": "expiryTime",
          "type": "uint256"
        },
        {
          "internalType": "bytes32",
          "name": "proofHash",
          "type": "bytes32"
        },
        {
          "internalType": "enum ProofOfFunds.ProofType",
          "name": "proofType",
          "type": "uint8"
        },
        {
          "internalType": "uint256",
          "name": "thresholdAmount",
          "type": "uint256"
        },
        {
          "internalType": "bool",
          "name": "isRevoked",
          "type": "bool"
        },
        {
          "internalType": "string",
          "name": "signatureMessage",
          "type": "string"
        },
        {
          "internalType": "bytes",
          "name": "signature",
          "type": "bytes"
        }
      ],
      "stateMutability": "view",
      "type": "function"
    },
    {
      "inputs": [],
      "name": "renounceOwnership",
      "outputs": [],
      "stateMutability": "nonpayable",
      "type": "function"
    },
    {
      "inputs": [
        {
          "internalType": "string",
          "name": "_reason",
          "type": "string"
        }
      ],
      "name": "revokeProof",
      "outputs": [],
      "stateMutability": "nonpayable",
      "type": "function"
    },
    {
      "inputs": [
        {
          "internalType": "enum ProofOfFunds.ProofType",
          "name": "_proofType",
          "type": "uint8"
        },
        {
          "internalType": "bytes32",
          "name": "_proofHash",
          "type": "bytes32"
        },
        {
          "internalType": "uint256",
          "name": "_expiryTime",
          "type": "uint256"
        },
        {
          "internalType": "uint256",
          "name": "_thresholdAmount",
          "type": "uint256"
        },
        {
          "internalType": "string",
          "name": "_signatureMessage",
          "type": "string"
        },
        {
          "internalType": "bytes",
          "name": "_signature",
          "type": "bytes"
        }
      ],
      "name": "submitProof",
      "outputs": [],
      "stateMutability": "nonpayable",
      "type": "function"
    },
    {
      "inputs": [
        {
          "internalType": "address",
          "name": "newOwner",
          "type": "address"
        }
      ],
      "name": "transferOwnership",
      "outputs": [],
      "stateMutability": "nonpayable",
      "type": "function"
    },
    {
      "inputs": [],
      "name": "unpause",
      "outputs": [],
      "stateMutability": "nonpayable",
      "type": "function"
    },
    {
      "inputs": [
        {
          "internalType": "address",
          "name": "_user",
          "type": "address"
        },
        {
          "internalType": "uint256",
          "name": "_maximumAmount",
          "type": "uint256"
        }
      ],
      "name": "verifyMaximumProof",
      "outputs": [
        {
          "internalType": "bool",
          "name": "",
          "type": "bool"
        }
      ],
      "stateMutability": "view",
      "type": "function"
    },
    {
      "inputs": [
        {
          "internalType": "address",
          "name": "_user",
          "type": "address"
        },
        {
          "internalType": "string",
          "name": "_message",
          "type": "string"
        }
      ],
      "name": "verifySignature",
      "outputs": [
        {
          "internalType": "bool",
          "name": "",
          "type": "bool"
        }
      ],
      "stateMutability": "view",
      "type": "function"
    },
    {
      "inputs": [
        {
          "internalType": "address",
          "name": "_user",
          "type": "address"
        },
        {
          "internalType": "uint256",
          "name": "_claimedAmount",
          "type": "uint256"
        }
      ],
      "name": "verifyStandardProof",
      "outputs": [
        {
          "internalType": "bool",
          "name": "",
          "type": "bool"
        }
      ],
      "stateMutability": "view",
      "type": "function"
    },
    {
      "inputs": [
        {
          "internalType": "address",
          "name": "_user",
          "type": "address"
        },
        {
          "internalType": "uint256",
          "name": "_minimumAmount",
          "type": "uint256"
        }
      ],
      "name": "verifyThresholdProof",
      "outputs": [
        {
          "internalType": "bool",
          "name": "",
          "type": "bool"
        }
      ],
      "stateMutability": "view",
      "type": "function"
    }
  ],
  "bytecode": "0x608060405234801561001057600080fd5b506000805460ff191690556100243361002d565b60018055610086565b600080546001600160a01b03838116610100818102610100600160a81b0319851617855560405193049190911692909183917f8be0079c531659141344cd1fd0a4f28419497f9722a3daafe3b4186f6b6457e091a35050565b6120f9806100956000396000f3fe608060405234801561001057600080fd5b50600436106101215760003560e01c80637be7bb2e116100ad578063e98fa50011610071578063e98fa5001461025c578063ed8d6c8f1461026f578063f2fde38b14610278578063fea362cc1461028b578063ffa1ad741461029e57600080fd5b80637be7bb2e146101e55780638456cb59146101f05780638da5cb5b146101f8578063a795f9e214610221578063cac11f0d1461024957600080fd5b80632ba8f682116100f45780632ba8f682146101975780633eea79d1146101aa5780633f4ba83a146101ca5780635c975abb146101d2578063715018a6146101dd57600080fd5b806307c4d915146101265780630b5a9a101461014e578063140f8d7d1461016f578063234155f914610182575b600080fd5b610139610134366004611a4f565b6102cf565b60405190151581526020015b60405180910390f35b61016161015c366004611a88565b6104fc565b604051908152602001610145565b61013961017d366004611ac4565b6105ed565b610195610190366004611b28565b6107e1565b005b6101396101a5366004611a4f565b61090b565b6101bd6101b8366004611ac4565b610b48565b6040516101459190611be8565b610195610d62565b60005460ff16610139565b610195610da8565b6101616301e1338081565b610195610dbc565b60005461010090046001600160a01b03166040516001600160a01b039091168152602001610145565b61023461022f366004611ac4565b610dfc565b60405161014599989796959493929190611c97565b610139610257366004611d0f565b610f69565b61019561026a366004611d62565b611177565b610161610e1081565b610195610286366004611ac4565b611564565b610139610299366004611a4f565b6115dd565b6102c2604051806040016040528060058152602001640312e302e360dc1b81525081565b6040516101459190611dff565b6001600160a01b038083166000908152600260208181526040808420815161012081018352815490961686526001810154928601929092528183015490850152600381015460608501526004810154929384939092608084019160ff169081111561033c5761033c611b6a565b600281111561034d5761034d611b6a565b815260058201546020820152600682015460ff161515604082015260078201805460609092019161037d90611e12565b80601f01602080910402602001604051908101604052809291908181526020018280546103a990611e12565b80156103f65780601f106103cb576101008083540402835291602001916103f6565b820191906000526020600020905b8154815290600101906020018083116103d957829003601f168201915b5050505050815260200160088201805461040f90611e12565b80601f016020809104026020016040519081016040528092919081815260200182805461043b90611e12565b80156104885780601f1061045d57610100808354040283529160200191610488565b820191906000526020600020905b81548152906001019060200180831161046b57829003601f168201915b5050509190925250508151919250506001600160a01b031615806104b0575042816040015111155b806104bc57508060c001515b806104dd57506001816080015160028111156104da576104da611b6a565b14155b156104ec5760009150506104f6565b60a0015182111590505b92915050565b60008082600281111561051157610511611b6a565b036105485783838360405160200161052b93929190611e4c565b6040516020818303038152906040528051906020012090506105e6565b600182600281111561055c5761055c611b6a565b036105765783838360405160200161052b93929190611e78565b600282600281111561058a5761058a611b6a565b036105a45783838360405160200161052b93929190611ec3565b60405162461bcd60e51b8152602060048201526012602482015271496e76616c69642070726f6f66207479706560701b60448201526064015b60405180910390fd5b9392505050565b6001600160a01b038082166000908152600260208181526040808420815161012081018352815490961686526001810154928601929092528183015490850152600381015460608501526004810154929384939092608084019160ff169081111561065a5761065a611b6a565b600281111561066b5761066b611b6a565b815260058201546020820152600682015460ff161515604082015260078201805460609092019161069b90611e12565b80601f01602080910402602001604051908101604052809291908181526020018280546106c790611e12565b80156107145780601f106106e957610100808354040283529160200191610714565b820191906000526020600020905b8154815290600101906020018083116106f757829003601f168201915b5050505050815260200160088201805461072d90611e12565b80601f016020809104026020016040519081016040528092919081815260200182805461075990611e12565b80156107a65780601f1061077b576101008083540402835291602001916107a6565b820191906000526020600020905b81548152906001019060200180831161078957829003601f168201915b5050509190925250508151919250506001600160a01b0316158015906107cf5750428160400151115b80156105e6575060c001511592915050565b6107e9611808565b6107f1611861565b33600090815260026020526040902080546001600160a01b03166108575760405162461bcd60e51b815260206004820152601860248201527f4e6f2070726f6f662065786973747320666f722075736572000000000000000060448201526064016105dd565b600681015460ff16156108ac5760405162461bcd60e51b815260206004820152601860248201527f50726f6f6620697320616c7265616479207265766f6b6564000000000000000060448201526064016105dd565b60068101805460ff19166001179055600381015460405133917f49d75a09ba08c7a5e2460a668f52c44674eace0b83175d95070926132abb74bb916108f5919087908790611f0c565b60405180910390a25061090760018055565b5050565b6001600160a01b038083166000908152600260208181526040808420815161012081018352815490961686526001810154928601929092528183015490850152600381015460608501526004810154929384939092608084019160ff169081111561097857610978611b6a565b600281111561098957610989611b6a565b815260058201546020820152600682015460ff16151560408201526007820180546060909201916109b990611e12565b80601f01602080910402602001604051908101604052809291908181526020018280546109e590611e12565b8015610a325780601f10610a0757610100808354040283529160200191610a32565b820191906000526020600020905b815481529060010190602001808311610a1557829003601f168201915b50505050508152602001600882018054610a4b90611e12565b80601f0160208091040260200160405190810160405280929190818152602001828054610a7790611e12565b8015610ac45780601f10610a9957610100808354040283529160200191610ac4565b820191906000526020600020905b815481529060010190602001808311610aa757829003601f168201915b5050509190925250508151919250506001600160a01b03161580610aec575042816040015111155b80610af857508060c001515b80610b195750600081608001516002811115610b1657610b16611b6a565b14155b15610b285760009150506104f6565b6000610b36858560006104fc565b60609092015190911491505092915050565b610b9960408051610120810182526000808252602082018190529181018290526060810182905290608082019081526020016000815260200160001515815260200160608152602001606081525090565b6001600160a01b03808316600090815260026020818152604092839020835161012081018552815490951685526001810154918501919091528082015492840192909252600382015460608401526004820154608084019160ff90911690811115610c0657610c06611b6a565b6002811115610c1757610c17611b6a565b815260058201546020820152600682015460ff1615156040820152600782018054606090920191610c4790611e12565b80601f0160208091040260200160405190810160405280929190818152602001828054610c7390611e12565b8015610cc05780601f10610c9557610100808354040283529160200191610cc0565b820191906000526020600020905b815481529060010190602001808311610ca357829003601f168201915b50505050508152602001600882018054610cd990611e12565b80601f0160208091040260200160405190810160405280929190818152602001828054610d0590611e12565b8015610d525780601f10610d2757610100808354040283529160200191610d52565b820191906000526020600020905b815481529060010190602001808311610d3557829003601f168201915b5050505050815250509050919050565b610d6a6118a7565b610d72611907565b6040513381527f5b65b0c1363b3003db9bcc5e1fd8805a6d6bf5bf6dc9d3431ee4494cd7d11766906020015b60405180910390a1565b610db06118a7565b610dba6000611954565b565b610dc46118a7565b610dcc6119ad565b6040513381527f81990fd9a5c552b8e3677917d8a03c07678f0d2cb68f88b634aca2022e9bd19f90602001610d9e565b6002602081905260009182526040909120805460018201549282015460038301546004840154600585015460068601546007870180546001600160a01b0390971698979596949560ff94851695939490921692610e5890611e12565b80601f0160208091040260200160405190810160405280929190818152602001828054610e8490611e12565b8015610ed15780601f10610ea657610100808354040283529160200191610ed1565b820191906000526020600020905b815481529060010190602001808311610eb457829003601f168201915b505050505090806008018054610ee690611e12565b80601f0160208091040260200160405190810160405280929190818152602001828054610f1290611e12565b8015610f5f5780601f10610f3457610100808354040283529160200191610f5f565b820191906000526020600020905b815481529060010190602001808311610f4257829003601f168201915b5050505050905089565b6001600160a01b038084166000908152600260208181526040808420815161012081018352815490961686526001810154928601929092528183015490850152600381015460608501526004810154929384939092608084019160ff1690811115610fd657610fd6611b6a565b6002811115610fe757610fe7611b6a565b815260058201546020820152600682015460ff161515604082015260078201805460609092019161101790611e12565b80601f016020809104026020016040519081016040528092919081815260200182805461104390611e12565b80156110905780601f1061106557610100808354040283529160200191611090565b820191906000526020600020905b81548152906001019060200180831161107357829003601f168201915b505050505081526020016008820180546110a990611e12565b80601f01602080910402602001604051908101604052809291908181526020018280546110d590611e12565b80156111225780601f106110f757610100808354040283529160200191611122565b820191906000526020600020905b81548152906001019060200180831161110557829003601f168201915b5050509190925250508151919250506001600160a01b03166111485760009150506105e6565b8383604051611158929190611f42565b60405180910390208160e0015180519060200120149150509392505050565b61117f611808565b611187611861565b854281116111e15760405162461bcd60e51b815260206004820152602160248201527f4578706972792074696d65206d75737420626520696e207468652066757475726044820152606560f81b60648201526084016105dd565b6111ef6301e1338042611f52565b8111156112485760405162461bcd60e51b815260206004820152602160248201527f4578706972792074696d6520746f6f2066617220696e207468652066757475726044820152606560f81b60648201526084016105dd565b611254610e1042611f52565b81101561129b5760405162461bcd60e51b8152602060048201526015602482015274115e1c1a5c9e481d1a5b59481d1bdbc81cda1bdc9d605a1b60448201526064016105dd565b836112e85760405162461bcd60e51b815260206004820152601d60248201527f5369676e6174757265206d65737361676520697320726571756972656400000060448201526064016105dd565b60018960028111156112fc576112fc611b6a565b14806113195750600289600281111561131757611317611b6a565b145b1561138157600086116113815760405162461bcd60e51b815260206004820152602a60248201527f5468726573686f6c6420616d6f756e74206d7573742062652067726561746572604482015269207468616e207a65726f60b01b60648201526084016105dd565b604051806101200160405280336001600160a01b031681526020014281526020018881526020018981526020018a60028111156113c0576113c0611b6a565b815260200187815260200160001515815260200186868080601f016020809104026020016040519081016040528093929190818152602001838380828437600092019190915250505090825250604080516020601f870181900481028201810190925285815291810191908690869081908401838280828437600092018290525093909452505033815260026020818152604092839020855181546001600160a01b0319166001600160a01b039091161781559085015160018083019190915592850151818301556060850151600382015560808501516004820180549295509093909260ff199092169184908111156114bc576114bc611b6a565b021790555060a0820151600582015560c082015160068201805460ff191691151591909117905560e082015160078201906114f79082611fd8565b50610100820151600882019061150d9082611fd8565b50506040513391507fa8f89e09b2f0c3d2cf84f4cf772de014dd7ac5d5d9825bc751cd4706748b952390611548908b9042908c908f90612098565b60405180910390a25061155a60018055565b5050505050505050565b61156c6118a7565b6001600160a01b0381166115d15760405162461bcd60e51b815260206004820152602660248201527f4f776e61626c653a206e6577206f776e657220697320746865207a65726f206160448201526564647265737360d01b60648201526084016105dd565b6115da81611954565b50565b6001600160a01b038083166000908152600260208181526040808420815161012081018352815490961686526001810154928601929092528183015490850152600381015460608501526004810154929384939092608084019160ff169081111561164a5761164a611b6a565b600281111561165b5761165b611b6a565b815260058201546020820152600682015460ff161515604082015260078201805460609092019161168b90611e12565b80601f01602080910402602001604051908101604052809291908181526020018280546116b790611e12565b80156117045780601f106116d957610100808354040283529160200191611704565b820191906000526020600020905b8154815290600101906020018083116116e757829003601f168201915b5050505050815260200160088201805461171d90611e12565b80601f016020809104026020016040519081016040528092919081815260200182805461174990611e12565b80156117965780601f1061176b57610100808354040283529160200191611796565b820191906000526020600020905b81548152906001019060200180831161177957829003601f168201915b5050509190925250508151919250506001600160a01b031615806117be575042816040015111155b806117ca57508060c001515b806117eb57506002816080015160028111156117e8576117e8611b6a565b14155b156117fa5760009150506104f6565b60a001519091101592915050565b60026001540361185a5760405162461bcd60e51b815260206004820152601f60248201527f5265656e7472616e637947756172643a207265656e7472616e742063616c6c0060448201526064016105dd565b6002600155565b60005460ff1615610dba5760405162461bcd60e51b815260206004820152601060248201526f14185d5cd8589b194e881c185d5cd95960821b60448201526064016105dd565b6000546001600160a01b03610100909104163314610dba5760405162461bcd60e51b815260206004820181905260248201527f4f776e61626c653a2063616c6c6572206973206e6f7420746865206f776e657260448201526064016105dd565b61190f6119ea565b6000805460ff191690557f5db9ee0a495bf2e6ff9c91a7834c1ba4fdd244a5e8aa4e537bd38aeae4b073aa335b6040516001600160a01b039091168152602001610d9e565b600080546001600160a01b03838116610100818102610100600160a81b0319851617855560405193049190911692909183917f8be0079c531659141344cd1fd0a4f28419497f9722a3daafe3b4186f6b6457e091a35050565b6119b5611861565b6000805460ff191660011790557f62e78cea01bee320cd4e420270b5ea74000d11b0c9f74754ebdbfc544b05a25861193c3390565b60005460ff16610dba5760405162461bcd60e51b815260206004820152601460248201527314185d5cd8589b194e881b9bdd081c185d5cd95960621b60448201526064016105dd565b80356001600160a01b0381168114611a4a57600080fd5b919050565b60008060408385031215611a6257600080fd5b611a6b83611a33565b946020939093013593505050565b803560038110611a4a57600080fd5b600080600060608486031215611a9d57600080fd5b611aa684611a33565b925060208401359150611abb60408501611a79565b90509250925092565b600060208284031215611ad657600080fd5b6105e682611a33565b60008083601f840112611af157600080fd5b50813567ffffffffffffffff811115611b0957600080fd5b602083019150836020828501011115611b2157600080fd5b9250929050565b60008060208385031215611b3b57600080fd5b823567ffffffffffffffff811115611b5257600080fd5b611b5e85828601611adf565b90969095509350505050565b634e487b7160e01b600052602160045260246000fd5b60038110611b9e57634e487b7160e01b600052602160045260246000fd5b9052565b6000815180845260005b81811015611bc857602081850181015186830182015201611bac565b506000602082860101526020601f19601f83011685010191505092915050565b60208152611c026020820183516001600160a01b03169052565b60208201516040820152604082015160608201526060820151608082015260006080830151611c3460a0840182611b80565b5060a083015160c083015260c0830151611c5260e084018215159052565b5060e08301516101206101008181860152611c71610140860184611ba2565b90860151858203601f190183870152909250611c8d8382611ba2565b9695505050505050565b6001600160a01b038a1681526020810189905260408101889052606081018790526000610120611cca6080840189611b80565b8660a084015285151560c08401528060e0840152611cea81840186611ba2565b9050828103610100840152611cff8185611ba2565b9c9b505050505050505050505050565b600080600060408486031215611d2457600080fd5b611d2d84611a33565b9250602084013567ffffffffffffffff811115611d4957600080fd5b611d5586828701611adf565b9497909650939450505050565b60008060008060008060008060c0898b031215611d7e57600080fd5b611d8789611a79565b9750602089013596506040890135955060608901359450608089013567ffffffffffffffff80821115611db957600080fd5b611dc58c838d01611adf565b909650945060a08b0135915080821115611dde57600080fd5b50611deb8b828c01611adf565b999c989b5096995094979396929594505050565b6020815260006105e66020830184611ba2565b600181811c90821680611e2657607f821691505b602082108103611e4657634e487b7160e01b600052602260045260246000fd5b50919050565b6001600160a01b03841681526020810183905260608101611e706040830184611b80565b949350505050565b6001600160a01b038416815260208101839052611e986040820183611b80565b608060608201819052600990820152681d1a1c995cda1bdb1960ba1b60a082015260c0019392505050565b6001600160a01b038416815260208101839052611ee36040820183611b80565b608060608201819052600790820152666d6178696d756d60c81b60a082015260c0019392505050565b83815260406020820152816040820152818360608301376000818301606090810191909152601f909201601f1916010192915050565b8183823760009101908152919050565b808201808211156104f657634e487b7160e01b600052601160045260246000fd5b634e487b7160e01b600052604160045260246000fd5b601f821115611fd357600081815260208120601f850160051c81016020861015611fb05750805b601f850160051c820191505b81811015611fcf57828155600101611fbc565b5050505b505050565b815167ffffffffffffffff811115611ff257611ff2611f73565b612006816120008454611e12565b84611f89565b602080601f83116001811461203b57600084156120235750858301515b600019600386901b1c1916600185901b178555611fcf565b600085815260208120601f198616915b8281101561206a5788860151825594840194600190910190840161204b565b50858210156120885787850151600019600388901b60f8161c191681555b5050505050600190811b01905550565b8481526020810184905260408101839052608081016120ba6060830184611b80565b9594505050505056fea26469706673582212200741df21f35900908fa5411e1da6aa1397e54c221c5c15640d09f5d07b848c4c64736f6c63430008130033",
  "linkReferences": {},
  "deployedLinkReferences": {}
}