{
  "_format": "hh-sol-artifact-1",
  "contractName": "ProofOfFundsSimple",
  "sourceName": "contracts/ProofOfFundsSimple.sol",
  "abi": [
    {
      "inputs": [],
      "stateMutability": "nonpayable",
      "type": "constructor"
    },
    {
      "anonymous": false,
      "inputs": [
        {
          "indexed": true,
          "internalType": "address",
          "name": "previousOwner",
          "type": "address"
        },
        {
          "indexed": true,
          "internalType": "address",
          "name": "newOwner",
          "type": "address"
        }
      ],
      "name": "OwnershipTransferred",
      "type": "event"
    },
    {
      "anonymous": false,
      "inputs": [
        {
          "indexed": true,
          "internalType": "address",
          "name": "user",
          "type": "address"
        },
        {
          "indexed": false,
          "internalType": "uint256",
          "name": "timestamp",
          "type": "uint256"
        }
      ],
      "name": "ProofSubmitted",
      "type": "event"
    },
    {
      "inputs": [],
      "name": "VERSION",
      "outputs": [
        {
          "internalType": "string",
          "name": "",
          "type": "string"
        }
      ],
      "stateMutability": "view",
      "type": "function"
    },
    {
      "inputs": [],
      "name": "getVersion",
      "outputs": [
        {
          "internalType": "string",
          "name": "",
          "type": "string"
        }
      ],
      "stateMutability": "pure",
      "type": "function"
    },
    {
      "inputs": [],
      "name": "owner",
      "outputs": [
        {
          "internalType": "address",
          "name": "",
          "type": "address"
        }
      ],
      "stateMutability": "view",
      "type": "function"
    },
    {
      "inputs": [],
      "name": "renounceOwnership",
      "outputs": [],
      "stateMutability": "nonpayable",
      "type": "function"
    },
    {
      "inputs": [],
      "name": "submitProof",
      "outputs": [],
      "stateMutability": "nonpayable",
      "type": "function"
    },
    {
      "inputs": [
        {
          "internalType": "address",
          "name": "newOwner",
          "type": "address"
        }
      ],
      "name": "transferOwnership",
      "outputs": [],
      "stateMutability": "nonpayable",
      "type": "function"
    }
  ],
  "bytecode": "0x608060405234801561001057600080fd5b5061001a3361001f565b61006f565b600080546001600160a01b038381166001600160a01b0319831681178455604051919092169283917f8be0079c531659141344cd1fd0a4f28419497f9722a3daafe3b4186f6b6457e09190a35050565b6103258061007e6000396000f3fe608060405234801561001057600080fd5b50600436106100625760003560e01c80630d8e6e2c14610067578063715018a61461009a5780638da5cb5b146100a4578063c201be23146100bf578063f2fde38b146100c7578063ffa1ad74146100da575b600080fd5b6040805180820190915260058152640312e302e360dc1b60208201525b6040516100919190610271565b60405180910390f35b6100a26100fe565b005b6000546040516001600160a01b039091168152602001610091565b6100a2610112565b6100a26100d53660046102bf565b610149565b610084604051806040016040528060058152602001640312e302e360dc1b81525081565b6101066101c7565b6101106000610221565b565b60405142815233907f31dcad4840c3951058f13581a07253b4b2bf340b350e1d7ba282f33140a4835b9060200160405180910390a2565b6101516101c7565b6001600160a01b0381166101bb5760405162461bcd60e51b815260206004820152602660248201527f4f776e61626c653a206e6577206f776e657220697320746865207a65726f206160448201526564647265737360d01b60648201526084015b60405180910390fd5b6101c481610221565b50565b6000546001600160a01b031633146101105760405162461bcd60e51b815260206004820181905260248201527f4f776e61626c653a2063616c6c6572206973206e6f7420746865206f776e657260448201526064016101b2565b600080546001600160a01b038381166001600160a01b0319831681178455604051919092169283917f8be0079c531659141344cd1fd0a4f28419497f9722a3daafe3b4186f6b6457e09190a35050565b600060208083528351808285015260005b8181101561029e57858101830151858201604001528201610282565b506000604082860101526040601f19601f8301168501019250505092915050565b6000602082840312156102d157600080fd5b81356001600160a01b03811681146102e857600080fd5b939250505056fea2646970667358221220bfc060b37cafa3ad96b142cd3ca9ab04241a8f202d04f32ff43d52935208a67a64736f6c63430008130033",
  "linkReferences": {},
  "deployedLinkReferences": {}
}